{
  "_format": "hh-sol-artifact-1",
  "contractName": "MintingContract",
  "sourceName": "contracts/MintingContract.sol",
  "abi": [
    {
      "inputs": [
        {
          "internalType": "address",
          "name": "nftContract",
          "type": "address"
        },
        {
          "internalType": "string",
          "name": "_blacknft",
          "type": "string"
        }
      ],
      "stateMutability": "nonpayable",
      "type": "constructor"
    },
    {
      "anonymous": false,
      "inputs": [
        {
          "indexed": true,
          "internalType": "address",
          "name": "account",
          "type": "address"
        }
      ],
      "name": "AdminGranted",
      "type": "event"
    },
    {
      "anonymous": false,
      "inputs": [
        {
          "indexed": true,
          "internalType": "address",
          "name": "account",
          "type": "address"
        }
      ],
      "name": "AdminRevoked",
      "type": "event"
    },
    {
      "anonymous": false,
      "inputs": [
        {
          "indexed": true,
          "internalType": "address",
          "name": "account",
          "type": "address"
        },
        {
          "indexed": false,
          "internalType": "string",
          "name": "tokenType",
          "type": "string"
        },
        {
          "indexed": false,
          "internalType": "uint256",
          "name": "tokenId",
          "type": "uint256"
        }
      ],
      "name": "NFTPurchased",
      "type": "event"
    },
    {
      "anonymous": false,
      "inputs": [
        {
          "indexed": true,
          "internalType": "address",
          "name": "previousOwner",
          "type": "address"
        },
        {
          "indexed": true,
          "internalType": "address",
          "name": "newOwner",
          "type": "address"
        }
      ],
      "name": "OwnershipTransferred",
      "type": "event"
    },
    {
      "inputs": [
        {
          "internalType": "string",
          "name": "tokenType",
          "type": "string"
        }
      ],
      "name": "buyNFT",
      "outputs": [],
      "stateMutability": "payable",
      "type": "function"
    },
    {
      "inputs": [
        {
          "internalType": "string",
          "name": "tokenType",
          "type": "string"
        }
      ],
      "name": "getNFTPrice",
      "outputs": [
        {
          "internalType": "uint256",
          "name": "",
          "type": "uint256"
        }
      ],
      "stateMutability": "view",
      "type": "function"
    },
    {
      "inputs": [
        {
          "internalType": "address",
          "name": "admin",
          "type": "address"
        }
      ],
      "name": "grantAdmin",
      "outputs": [],
      "stateMutability": "nonpayable",
      "type": "function"
    },
    {
      "inputs": [
        {
          "internalType": "address",
          "name": "account",
          "type": "address"
        }
      ],
      "name": "isAdmin",
      "outputs": [
        {
          "internalType": "bool",
          "name": "",
          "type": "bool"
        }
      ],
      "stateMutability": "view",
      "type": "function"
    },
    {
      "inputs": [],
      "name": "owner",
      "outputs": [
        {
          "internalType": "address",
          "name": "",
          "type": "address"
        }
      ],
      "stateMutability": "view",
      "type": "function"
    },
    {
      "inputs": [],
      "name": "renounceOwnership",
      "outputs": [],
      "stateMutability": "nonpayable",
      "type": "function"
    },
    {
      "inputs": [
        {
          "internalType": "address",
          "name": "admin",
          "type": "address"
        }
      ],
      "name": "revokeAdmin",
      "outputs": [],
      "stateMutability": "nonpayable",
      "type": "function"
    },
    {
      "inputs": [
        {
          "internalType": "address",
          "name": "nftContract",
          "type": "address"
        }
      ],
      "name": "setNFTContract",
      "outputs": [],
      "stateMutability": "nonpayable",
      "type": "function"
    },
    {
      "inputs": [
        {
          "internalType": "string",
          "name": "tokenType",
          "type": "string"
        },
        {
          "internalType": "uint256",
          "name": "priceInMATIC",
          "type": "uint256"
        }
      ],
      "name": "setNFTPrice",
      "outputs": [],
      "stateMutability": "nonpayable",
      "type": "function"
    },
    {
      "inputs": [
        {
          "internalType": "string",
          "name": "tokenType",
          "type": "string"
        },
        {
          "internalType": "uint256",
          "name": "revealTime",
          "type": "uint256"
        }
      ],
      "name": "setRevealTime",
      "outputs": [],
      "stateMutability": "nonpayable",
      "type": "function"
    },
    {
      "inputs": [
        {
          "internalType": "address",
          "name": "newOwner",
          "type": "address"
        }
      ],
      "name": "transferOwnership",
      "outputs": [],
      "stateMutability": "nonpayable",
      "type": "function"
    },
    {
      "inputs": [
        {
          "internalType": "uint256",
          "name": "tokenId",
          "type": "uint256"
        }
      ],
      "name": "uri",
      "outputs": [
        {
          "internalType": "string",
          "name": "",
          "type": "string"
        }
      ],
      "stateMutability": "view",
      "type": "function"
    },
    {
      "inputs": [
        {
          "internalType": "address payable",
          "name": "recipient",
          "type": "address"
        }
      ],
      "name": "withdrawFunds",
      "outputs": [],
      "stateMutability": "nonpayable",
      "type": "function"
    }
  ],
  "bytecode": "0x60806040523480156200001157600080fd5b5060405162002442380380620024428339818101604052810190620000379190620003ce565b620000576200004b6200010a60201b60201c565b6200011260201b60201c565b81600160006101000a81548173ffffffffffffffffffffffffffffffffffffffff021916908373ffffffffffffffffffffffffffffffffffffffff1602179055506001600560003373ffffffffffffffffffffffffffffffffffffffff1673ffffffffffffffffffffffffffffffffffffffff16815260200190815260200160002060006101000a81548160ff02191690831515021790555080600290816200010191906200067f565b50505062000766565b600033905090565b60008060009054906101000a900473ffffffffffffffffffffffffffffffffffffffff169050816000806101000a81548173ffffffffffffffffffffffffffffffffffffffff021916908373ffffffffffffffffffffffffffffffffffffffff1602179055508173ffffffffffffffffffffffffffffffffffffffff168173ffffffffffffffffffffffffffffffffffffffff167f8be0079c531659141344cd1fd0a4f28419497f9722a3daafe3b4186f6b6457e060405160405180910390a35050565b6000604051905090565b600080fd5b600080fd5b600073ffffffffffffffffffffffffffffffffffffffff82169050919050565b60006200021782620001ea565b9050919050565b62000229816200020a565b81146200023557600080fd5b50565b60008151905062000249816200021e565b92915050565b600080fd5b600080fd5b6000601f19601f8301169050919050565b7f4e487b7100000000000000000000000000000000000000000000000000000000600052604160045260246000fd5b620002a48262000259565b810181811067ffffffffffffffff82111715620002c657620002c56200026a565b5b80604052505050565b6000620002db620001d6565b9050620002e9828262000299565b919050565b600067ffffffffffffffff8211156200030c576200030b6200026a565b5b620003178262000259565b9050602081019050919050565b60005b838110156200034457808201518184015260208101905062000327565b60008484015250505050565b6000620003676200036184620002ee565b620002cf565b90508281526020810184848401111562000386576200038562000254565b5b6200039384828562000324565b509392505050565b600082601f830112620003b357620003b26200024f565b5b8151620003c584826020860162000350565b91505092915050565b60008060408385031215620003e857620003e7620001e0565b5b6000620003f88582860162000238565b925050602083015167ffffffffffffffff8111156200041c576200041b620001e5565b5b6200042a858286016200039b565b9150509250929050565b600081519050919050565b7f4e487b7100000000000000000000000000000000000000000000000000000000600052602260045260246000fd5b600060028204905060018216806200048757607f821691505b6020821081036200049d576200049c6200043f565b5b50919050565b60008190508160005260206000209050919050565b60006020601f8301049050919050565b600082821b905092915050565b600060088302620005077fffffffffffffffffffffffffffffffffffffffffffffffffffffffffffffffff82620004c8565b620005138683620004c8565b95508019841693508086168417925050509392505050565b6000819050919050565b6000819050919050565b6000620005606200055a62000554846200052b565b62000535565b6200052b565b9050919050565b6000819050919050565b6200057c836200053f565b620005946200058b8262000567565b848454620004d5565b825550505050565b600090565b620005ab6200059c565b620005b881848462000571565b505050565b5b81811015620005e057620005d4600082620005a1565b600181019050620005be565b5050565b601f8211156200062f57620005f981620004a3565b6200060484620004b8565b8101602085101562000614578190505b6200062c6200062385620004b8565b830182620005bd565b50505b505050565b600082821c905092915050565b6000620006546000198460080262000634565b1980831691505092915050565b60006200066f838362000641565b9150826002028217905092915050565b6200068a8262000434565b67ffffffffffffffff811115620006a657620006a56200026a565b5b620006b282546200046e565b620006bf828285620005e4565b600060209050601f831160018114620006f75760008415620006e2578287015190505b620006ee858262000661565b8655506200075e565b601f1984166200070786620004a3565b60005b8281101562000731578489015182556001820191506020850194506020810190506200070a565b868310156200075157848901516200074d601f89168262000641565b8355505b6001600288020188555050505b505050505050565b611ccc80620007766000396000f3fe6080604052600436106100c25760003560e01c80636f90c8aa1161007f5780638da5cb5b116100595780638da5cb5b14610241578063a7ccabdf1461026c578063d873785d14610295578063f2fde38b146102d2576100c2565b80636f90c8aa146101e5578063715018a61461020e5780638d01230014610225576100c2565b80630e89341c146100c757806324d7806c146101045780632d3456701461014157806335bb3e161461016a57806368742da6146101935780636e1c0ba6146101bc575b600080fd5b3480156100d357600080fd5b506100ee60048036038101906100e99190610ffb565b6102fb565b6040516100fb91906110b8565b60405180910390f35b34801561011057600080fd5b5061012b60048036038101906101269190611138565b61054f565b6040516101389190611180565b60405180910390f35b34801561014d57600080fd5b5061016860048036038101906101639190611138565b6105a5565b005b34801561017657600080fd5b50610191600480360381019061018c9190611138565b6106b9565b005b34801561019f57600080fd5b506101ba60048036038101906101b591906111d9565b61075f565b005b3480156101c857600080fd5b506101e360048036038101906101de919061126b565b61087e565b005b3480156101f157600080fd5b5061020c6004803603810190610207919061126b565b610934565b005b34801561021a57600080fd5b506102236109ea565b005b61023f600480360381019061023a91906112cb565b6109fe565b005b34801561024d57600080fd5b50610256610d2e565b6040516102639190611327565b60405180910390f35b34801561027857600080fd5b50610293600480360381019061028e9190611138565b610d57565b005b3480156102a157600080fd5b506102bc60048036038101906102b791906112cb565b610da3565b6040516102c99190611351565b60405180910390f35b3480156102de57600080fd5b506102f960048036038101906102f49190611138565b610dce565b005b606060008211610340576040517f08c379a0000000000000000000000000000000000000000000000000000000008152600401610337906113b8565b60405180910390fd5b6000600160009054906101000a900473ffffffffffffffffffffffffffffffffffffffff1673ffffffffffffffffffffffffffffffffffffffff1663e6c3b1f6846040518263ffffffff1660e01b815260040161039d9190611351565b600060405180830381865afa1580156103ba573d6000803e3d6000fd5b505050506040513d6000823e3d601f19601f820116820180604052508101906103e391906114f9565b905060006006826040516103f7919061157e565b9081526020016040518091039020549050804210156104a4576002805461041d906115c4565b80601f0160208091040260200160405190810160405280929190818152602001828054610449906115c4565b80156104965780601f1061046b57610100808354040283529160200191610496565b820191906000526020600020905b81548152906001019060200180831161047957829003601f168201915b50505050509250505061054a565b600160009054906101000a900473ffffffffffffffffffffffffffffffffffffffff1673ffffffffffffffffffffffffffffffffffffffff16630e89341c856040518263ffffffff1660e01b81526004016104ff9190611351565b600060405180830381865afa15801561051c573d6000803e3d6000fd5b505050506040513d6000823e3d601f19601f8201168201806040525081019061054591906114f9565b925050505b919050565b6000600560008373ffffffffffffffffffffffffffffffffffffffff1673ffffffffffffffffffffffffffffffffffffffff16815260200190815260200160002060009054906101000a900460ff169050919050565b6105ad610e51565b3373ffffffffffffffffffffffffffffffffffffffff168173ffffffffffffffffffffffffffffffffffffffff160361061b576040517f08c379a000000000000000000000000000000000000000000000000000000000815260040161061290611667565b60405180910390fd5b6000600560008373ffffffffffffffffffffffffffffffffffffffff1673ffffffffffffffffffffffffffffffffffffffff16815260200190815260200160002060006101000a81548160ff0219169083151502179055508073ffffffffffffffffffffffffffffffffffffffff167f631ff1c4e1a02c54b480a34b810e03bcee61fe38efcb243930a7f820914923e260405160405180910390a250565b6106c1610e51565b6001600560008373ffffffffffffffffffffffffffffffffffffffff1673ffffffffffffffffffffffffffffffffffffffff16815260200190815260200160002060006101000a81548160ff0219169083151502179055508073ffffffffffffffffffffffffffffffffffffffff167f1c4e23de8d72c94b22992bd4d7b6786b215ba876af214ff63e6a0ca38fc97af460405160405180910390a250565b600560003373ffffffffffffffffffffffffffffffffffffffff1673ffffffffffffffffffffffffffffffffffffffff16815260200190815260200160002060009054906101000a900460ff166107eb576040517f08c379a00000000000000000000000000000000000000000000000000000000081526004016107e2906116f9565b60405180910390fd5b600047905060008111610833576040517f08c379a000000000000000000000000000000000000000000000000000000000815260040161082a9061178b565b60405180910390fd5b8173ffffffffffffffffffffffffffffffffffffffff166108fc829081150290604051600060405180830381858888f19350505050158015610879573d6000803e3d6000fd5b505050565b600560003373ffffffffffffffffffffffffffffffffffffffff1673ffffffffffffffffffffffffffffffffffffffff16815260200190815260200160002060009054906101000a900460ff1661090a576040517f08c379a0000000000000000000000000000000000000000000000000000000008152600401610901906116f9565b60405180910390fd5b806006848460405161091d9291906117df565b908152602001604051809103902081905550505050565b600560003373ffffffffffffffffffffffffffffffffffffffff1673ffffffffffffffffffffffffffffffffffffffff16815260200190815260200160002060009054906101000a900460ff166109c0576040517f08c379a00000000000000000000000000000000000000000000000000000000081526004016109b7906116f9565b60405180910390fd5b80600384846040516109d39291906117df565b908152602001604051809103902081905550505050565b6109f2610e51565b6109fc6000610ecf565b565b600060038383604051610a129291906117df565b90815260200160405180910390205411610a61576040517f08c379a0000000000000000000000000000000000000000000000000000000008152600401610a589061186a565b60405180910390fd5b600460003373ffffffffffffffffffffffffffffffffffffffff1673ffffffffffffffffffffffffffffffffffffffff16815260200190815260200160002060009054906101000a900460ff1615610aee576040517f08c379a0000000000000000000000000000000000000000000000000000000008152600401610ae5906118fc565b60405180910390fd5b600060038383604051610b029291906117df565b908152602001604051809103902054905080341015610b56576040517f08c379a0000000000000000000000000000000000000000000000000000000008152600401610b4d9061198e565b60405180910390fd5b60003342604051602001610b6b929190611a17565b6040516020818303038152906040528051906020012060001c9050600160009054906101000a900473ffffffffffffffffffffffffffffffffffffffff1673ffffffffffffffffffffffffffffffffffffffff1663bb7fde713383600188886040518663ffffffff1660e01b8152600401610bea959493929190611ab5565b600060405180830381600087803b158015610c0457600080fd5b505af1158015610c18573d6000803e3d6000fd5b505050506001600460003373ffffffffffffffffffffffffffffffffffffffff1673ffffffffffffffffffffffffffffffffffffffff16815260200190815260200160002060006101000a81548160ff02191690831515021790555081341115610cd6573373ffffffffffffffffffffffffffffffffffffffff166108fc610ca98434610f9390919063ffffffff16565b9081150290604051600060405180830381858888f19350505050158015610cd4573d6000803e3d6000fd5b505b3373ffffffffffffffffffffffffffffffffffffffff167f87e6a2c9152325ee719f0811c014a8c037b4ee01bfea8e28ca41213227794af8858584604051610d2093929190611b03565b60405180910390a250505050565b60008060009054906101000a900473ffffffffffffffffffffffffffffffffffffffff16905090565b610d5f610e51565b80600160006101000a81548173ffffffffffffffffffffffffffffffffffffffff021916908373ffffffffffffffffffffffffffffffffffffffff16021790555050565b600060038383604051610db79291906117df565b908152602001604051809103902054905092915050565b610dd6610e51565b600073ffffffffffffffffffffffffffffffffffffffff168173ffffffffffffffffffffffffffffffffffffffff1603610e45576040517f08c379a0000000000000000000000000000000000000000000000000000000008152600401610e3c90611ba7565b60405180910390fd5b610e4e81610ecf565b50565b610e59610fa9565b73ffffffffffffffffffffffffffffffffffffffff16610e77610d2e565b73ffffffffffffffffffffffffffffffffffffffff1614610ecd576040517f08c379a0000000000000000000000000000000000000000000000000000000008152600401610ec490611c13565b60405180910390fd5b565b60008060009054906101000a900473ffffffffffffffffffffffffffffffffffffffff169050816000806101000a81548173ffffffffffffffffffffffffffffffffffffffff021916908373ffffffffffffffffffffffffffffffffffffffff1602179055508173ffffffffffffffffffffffffffffffffffffffff168173ffffffffffffffffffffffffffffffffffffffff167f8be0079c531659141344cd1fd0a4f28419497f9722a3daafe3b4186f6b6457e060405160405180910390a35050565b60008183610fa19190611c62565b905092915050565b600033905090565b6000604051905090565b600080fd5b600080fd5b6000819050919050565b610fd881610fc5565b8114610fe357600080fd5b50565b600081359050610ff581610fcf565b92915050565b60006020828403121561101157611010610fbb565b5b600061101f84828501610fe6565b91505092915050565b600081519050919050565b600082825260208201905092915050565b60005b83811015611062578082015181840152602081019050611047565b60008484015250505050565b6000601f19601f8301169050919050565b600061108a82611028565b6110948185611033565b93506110a4818560208601611044565b6110ad8161106e565b840191505092915050565b600060208201905081810360008301526110d2818461107f565b905092915050565b600073ffffffffffffffffffffffffffffffffffffffff82169050919050565b6000611105826110da565b9050919050565b611115816110fa565b811461112057600080fd5b50565b6000813590506111328161110c565b92915050565b60006020828403121561114e5761114d610fbb565b5b600061115c84828501611123565b91505092915050565b60008115159050919050565b61117a81611165565b82525050565b60006020820190506111956000830184611171565b92915050565b60006111a6826110da565b9050919050565b6111b68161119b565b81146111c157600080fd5b50565b6000813590506111d3816111ad565b92915050565b6000602082840312156111ef576111ee610fbb565b5b60006111fd848285016111c4565b91505092915050565b600080fd5b600080fd5b600080fd5b60008083601f84011261122b5761122a611206565b5b8235905067ffffffffffffffff8111156112485761124761120b565b5b60208301915083600182028301111561126457611263611210565b5b9250929050565b60008060006040848603121561128457611283610fbb565b5b600084013567ffffffffffffffff8111156112a2576112a1610fc0565b5b6112ae86828701611215565b935093505060206112c186828701610fe6565b9150509250925092565b600080602083850312156112e2576112e1610fbb565b5b600083013567ffffffffffffffff811115611300576112ff610fc0565b5b61130c85828601611215565b92509250509250929050565b611321816110fa565b82525050565b600060208201905061133c6000830184611318565b92915050565b61134b81610fc5565b82525050565b60006020820190506113666000830184611342565b92915050565b7f4d696e74696e67436f6e74726163743a20696e76616c696420746f6b656e4964600082015250565b60006113a2602083611033565b91506113ad8261136c565b602082019050919050565b600060208201905081810360008301526113d181611395565b9050919050565b600080fd5b7f4e487b7100000000000000000000000000000000000000000000000000000000600052604160045260246000fd5b6114158261106e565b810181811067ffffffffffffffff82111715611434576114336113dd565b5b80604052505050565b6000611447610fb1565b9050611453828261140c565b919050565b600067ffffffffffffffff821115611473576114726113dd565b5b61147c8261106e565b9050602081019050919050565b600061149c61149784611458565b61143d565b9050828152602081018484840111156114b8576114b76113d8565b5b6114c3848285611044565b509392505050565b600082601f8301126114e0576114df611206565b5b81516114f0848260208601611489565b91505092915050565b60006020828403121561150f5761150e610fbb565b5b600082015167ffffffffffffffff81111561152d5761152c610fc0565b5b611539848285016114cb565b91505092915050565b600081905092915050565b600061155882611028565b6115628185611542565b9350611572818560208601611044565b80840191505092915050565b600061158a828461154d565b915081905092915050565b7f4e487b7100000000000000000000000000000000000000000000000000000000600052602260045260246000fd5b600060028204905060018216806115dc57607f821691505b6020821081036115ef576115ee611595565b5b50919050565b7f4d696e74696e67436f6e74726163743a206f776e65722063616e6e6f7420726560008201527f766f6b65207468656972206f776e2061646d696e20726f6c6500000000000000602082015250565b6000611651603983611033565b915061165c826115f5565b604082019050919050565b6000602082019050818103600083015261168081611644565b9050919050565b7f4d696e74696e67436f6e74726163743a2063616c6c6572206973206e6f74206160008201527f6e2061646d696e00000000000000000000000000000000000000000000000000602082015250565b60006116e3602783611033565b91506116ee82611687565b604082019050919050565b60006020820190508181036000830152611712816116d6565b9050919050565b7f4d696e74696e67436f6e74726163743a206e6f2066756e647320746f2077697460008201527f6864726177000000000000000000000000000000000000000000000000000000602082015250565b6000611775602583611033565b915061178082611719565b604082019050919050565b600060208201905081810360008301526117a481611768565b9050919050565b82818337600083830152505050565b60006117c68385611542565b93506117d38385846117ab565b82840190509392505050565b60006117ec8284866117ba565b91508190509392505050565b7f4d696e74696e67436f6e74726163743a204e46542074797065206e6f7420666f60008201527f756e64206f72207072696365206e6f7420736574000000000000000000000000602082015250565b6000611854603483611033565b915061185f826117f8565b604082019050919050565b6000602082019050818103600083015261188381611847565b9050919050565b7f4d696e74696e67436f6e74726163743a206561636820757365722063616e206d60008201527f696e74206174206d6f73742031204e4654000000000000000000000000000000602082015250565b60006118e6603183611033565b91506118f18261188a565b604082019050919050565b60006020820190508181036000830152611915816118d9565b9050919050565b7f4d696e74696e67436f6e74726163743a20696e73756666696369656e74204d4160008201527f5449432073656e74000000000000000000000000000000000000000000000000602082015250565b6000611978602883611033565b91506119838261191c565b604082019050919050565b600060208201905081810360008301526119a78161196b565b9050919050565b60008160601b9050919050565b60006119c6826119ae565b9050919050565b60006119d8826119bb565b9050919050565b6119f06119eb826110fa565b6119cd565b82525050565b6000819050919050565b611a11611a0c82610fc5565b6119f6565b82525050565b6000611a2382856119df565b601482019150611a338284611a00565b6020820191508190509392505050565b6000819050919050565b6000819050919050565b6000611a72611a6d611a6884611a43565b611a4d565b610fc5565b9050919050565b611a8281611a57565b82525050565b6000611a948385611033565b9350611aa18385846117ab565b611aaa8361106e565b840190509392505050565b6000608082019050611aca6000830188611318565b611ad76020830187611342565b611ae46040830186611a79565b8181036060830152611af7818486611a88565b90509695505050505050565b60006040820190508181036000830152611b1e818587611a88565b9050611b2d6020830184611342565b949350505050565b7f4f776e61626c653a206e6577206f776e657220697320746865207a65726f206160008201527f6464726573730000000000000000000000000000000000000000000000000000602082015250565b6000611b91602683611033565b9150611b9c82611b35565b604082019050919050565b60006020820190508181036000830152611bc081611b84565b9050919050565b7f4f776e61626c653a2063616c6c6572206973206e6f7420746865206f776e6572600082015250565b6000611bfd602083611033565b9150611c0882611bc7565b602082019050919050565b60006020820190508181036000830152611c2c81611bf0565b9050919050565b7f4e487b7100000000000000000000000000000000000000000000000000000000600052601160045260246000fd5b6000611c6d82610fc5565b9150611c7883610fc5565b9250828203905081811115611c9057611c8f611c33565b5b9291505056fea264697066735822122094d5ca292429793c6ba0b500190df5e6fb8690a74d8d4835273b5633525906e364736f6c63430008130033",
  "linkReferences": {},
  "deployedLinkReferences": {}
}