{
  "_format": "hh-sol-artifact-1",
  "contractName": "NftContract",
  "sourceName": "contracts/NftContract.sol",
  "abi": [
    {
      "inputs": [
        {
          "internalType": "string",
          "name": "baseUri_",
          "type": "string"
        }
      ],
      "stateMutability": "nonpayable",
      "type": "constructor"
    },
    {
      "anonymous": false,
      "inputs": [
        {
          "indexed": true,
          "internalType": "address",
          "name": "account",
          "type": "address"
        },
        {
          "indexed": true,
          "internalType": "address",
          "name": "operator",
          "type": "address"
        },
        {
          "indexed": false,
          "internalType": "bool",
          "name": "approved",
          "type": "bool"
        }
      ],
      "name": "ApprovalForAll",
      "type": "event"
    },
    {
      "anonymous": false,
      "inputs": [
        {
          "indexed": true,
          "internalType": "address",
          "name": "account",
          "type": "address"
        },
        {
          "indexed": false,
          "internalType": "uint256",
          "name": "tokenId",
          "type": "uint256"
        },
        {
          "indexed": false,
          "internalType": "uint256",
          "name": "amount",
          "type": "uint256"
        }
      ],
      "name": "Minted",
      "type": "event"
    },
    {
      "anonymous": false,
      "inputs": [
        {
          "indexed": true,
          "internalType": "address",
          "name": "previousOwner",
          "type": "address"
        },
        {
          "indexed": true,
          "internalType": "address",
          "name": "newOwner",
          "type": "address"
        }
      ],
      "name": "OwnershipTransferred",
      "type": "event"
    },
    {
      "anonymous": false,
      "inputs": [
        {
          "indexed": false,
          "internalType": "address",
          "name": "account",
          "type": "address"
        }
      ],
      "name": "Paused",
      "type": "event"
    },
    {
      "anonymous": false,
      "inputs": [
        {
          "indexed": true,
          "internalType": "address",
          "name": "operator",
          "type": "address"
        },
        {
          "indexed": true,
          "internalType": "address",
          "name": "from",
          "type": "address"
        },
        {
          "indexed": true,
          "internalType": "address",
          "name": "to",
          "type": "address"
        },
        {
          "indexed": false,
          "internalType": "uint256[]",
          "name": "ids",
          "type": "uint256[]"
        },
        {
          "indexed": false,
          "internalType": "uint256[]",
          "name": "values",
          "type": "uint256[]"
        }
      ],
      "name": "TransferBatch",
      "type": "event"
    },
    {
      "anonymous": false,
      "inputs": [
        {
          "indexed": true,
          "internalType": "address",
          "name": "operator",
          "type": "address"
        },
        {
          "indexed": true,
          "internalType": "address",
          "name": "from",
          "type": "address"
        },
        {
          "indexed": true,
          "internalType": "address",
          "name": "to",
          "type": "address"
        },
        {
          "indexed": false,
          "internalType": "uint256",
          "name": "id",
          "type": "uint256"
        },
        {
          "indexed": false,
          "internalType": "uint256",
          "name": "value",
          "type": "uint256"
        }
      ],
      "name": "TransferSingle",
      "type": "event"
    },
    {
      "anonymous": false,
      "inputs": [
        {
          "indexed": false,
          "internalType": "string",
          "name": "value",
          "type": "string"
        },
        {
          "indexed": true,
          "internalType": "uint256",
          "name": "id",
          "type": "uint256"
        }
      ],
      "name": "URI",
      "type": "event"
    },
    {
      "anonymous": false,
      "inputs": [
        {
          "indexed": false,
          "internalType": "address",
          "name": "account",
          "type": "address"
        }
      ],
      "name": "Unpaused",
      "type": "event"
    },
    {
      "inputs": [
        {
          "internalType": "address",
          "name": "admin",
          "type": "address"
        }
      ],
      "name": "addAdmin",
      "outputs": [],
      "stateMutability": "nonpayable",
      "type": "function"
    },
    {
      "inputs": [
        {
          "internalType": "address",
          "name": "account",
          "type": "address"
        },
        {
          "internalType": "uint256",
          "name": "id",
          "type": "uint256"
        }
      ],
      "name": "balanceOf",
      "outputs": [
        {
          "internalType": "uint256",
          "name": "",
          "type": "uint256"
        }
      ],
      "stateMutability": "view",
      "type": "function"
    },
    {
      "inputs": [
        {
          "internalType": "address[]",
          "name": "accounts",
          "type": "address[]"
        },
        {
          "internalType": "uint256[]",
          "name": "ids",
          "type": "uint256[]"
        }
      ],
      "name": "balanceOfBatch",
      "outputs": [
        {
          "internalType": "uint256[]",
          "name": "",
          "type": "uint256[]"
        }
      ],
      "stateMutability": "view",
      "type": "function"
    },
    {
      "inputs": [
        {
          "internalType": "address",
          "name": "account",
          "type": "address"
        }
      ],
      "name": "isAdmin",
      "outputs": [
        {
          "internalType": "bool",
          "name": "",
          "type": "bool"
        }
      ],
      "stateMutability": "view",
      "type": "function"
    },
    {
      "inputs": [
        {
          "internalType": "address",
          "name": "account",
          "type": "address"
        },
        {
          "internalType": "address",
          "name": "operator",
          "type": "address"
        }
      ],
      "name": "isApprovedForAll",
      "outputs": [
        {
          "internalType": "bool",
          "name": "",
          "type": "bool"
        }
      ],
      "stateMutability": "view",
      "type": "function"
    },
    {
      "inputs": [
        {
          "internalType": "address",
          "name": "account",
          "type": "address"
        },
        {
          "internalType": "uint256",
          "name": "tokenId",
          "type": "uint256"
        },
        {
          "internalType": "uint256",
          "name": "amount",
          "type": "uint256"
        },
        {
          "internalType": "string",
          "name": "_tokenType",
          "type": "string"
        }
      ],
      "name": "mint",
      "outputs": [],
      "stateMutability": "nonpayable",
      "type": "function"
    },
    {
      "inputs": [],
      "name": "owner",
      "outputs": [
        {
          "internalType": "address",
          "name": "",
          "type": "address"
        }
      ],
      "stateMutability": "view",
      "type": "function"
    },
    {
      "inputs": [],
      "name": "pause",
      "outputs": [],
      "stateMutability": "nonpayable",
      "type": "function"
    },
    {
      "inputs": [],
      "name": "paused",
      "outputs": [
        {
          "internalType": "bool",
          "name": "",
          "type": "bool"
        }
      ],
      "stateMutability": "view",
      "type": "function"
    },
    {
      "inputs": [
        {
          "internalType": "address",
          "name": "admin",
          "type": "address"
        }
      ],
      "name": "removeAdmin",
      "outputs": [],
      "stateMutability": "nonpayable",
      "type": "function"
    },
    {
      "inputs": [],
      "name": "renounceOwnership",
      "outputs": [],
      "stateMutability": "nonpayable",
      "type": "function"
    },
    {
      "inputs": [
        {
          "internalType": "address",
          "name": "from",
          "type": "address"
        },
        {
          "internalType": "address",
          "name": "to",
          "type": "address"
        },
        {
          "internalType": "uint256[]",
          "name": "ids",
          "type": "uint256[]"
        },
        {
          "internalType": "uint256[]",
          "name": "amounts",
          "type": "uint256[]"
        },
        {
          "internalType": "bytes",
          "name": "data",
          "type": "bytes"
        }
      ],
      "name": "safeBatchTransferFrom",
      "outputs": [],
      "stateMutability": "nonpayable",
      "type": "function"
    },
    {
      "inputs": [
        {
          "internalType": "address",
          "name": "from",
          "type": "address"
        },
        {
          "internalType": "address",
          "name": "to",
          "type": "address"
        },
        {
          "internalType": "uint256",
          "name": "id",
          "type": "uint256"
        },
        {
          "internalType": "uint256",
          "name": "amount",
          "type": "uint256"
        },
        {
          "internalType": "bytes",
          "name": "data",
          "type": "bytes"
        }
      ],
      "name": "safeTransferFrom",
      "outputs": [],
      "stateMutability": "nonpayable",
      "type": "function"
    },
    {
      "inputs": [
        {
          "internalType": "address",
          "name": "operator",
          "type": "address"
        },
        {
          "internalType": "bool",
          "name": "approved",
          "type": "bool"
        }
      ],
      "name": "setApprovalForAll",
      "outputs": [],
      "stateMutability": "nonpayable",
      "type": "function"
    },
    {
      "inputs": [
        {
          "internalType": "string",
          "name": "baseUri_",
          "type": "string"
        }
      ],
      "name": "setBaseURI",
      "outputs": [],
      "stateMutability": "nonpayable",
      "type": "function"
    },
    {
      "inputs": [
        {
          "internalType": "bytes4",
          "name": "interfaceId",
          "type": "bytes4"
        }
      ],
      "name": "supportsInterface",
      "outputs": [
        {
          "internalType": "bool",
          "name": "",
          "type": "bool"
        }
      ],
      "stateMutability": "view",
      "type": "function"
    },
    {
      "inputs": [
        {
          "internalType": "uint256",
          "name": "tokenId",
          "type": "uint256"
        }
      ],
      "name": "tokenType",
      "outputs": [
        {
          "internalType": "string",
          "name": "",
          "type": "string"
        }
      ],
      "stateMutability": "view",
      "type": "function"
    },
    {
      "inputs": [
        {
          "internalType": "uint256",
          "name": "tokenId",
          "type": "uint256"
        }
      ],
      "name": "totalSupply",
      "outputs": [
        {
          "internalType": "uint256",
          "name": "",
          "type": "uint256"
        }
      ],
      "stateMutability": "view",
      "type": "function"
    },
    {
      "inputs": [
        {
          "internalType": "address",
          "name": "newOwner",
          "type": "address"
        }
      ],
      "name": "transferOwnership",
      "outputs": [],
      "stateMutability": "nonpayable",
      "type": "function"
    },
    {
      "inputs": [],
      "name": "unpause",
      "outputs": [],
      "stateMutability": "nonpayable",
      "type": "function"
    },
    {
      "inputs": [
        {
          "internalType": "uint256",
          "name": "tokenId",
          "type": "uint256"
        }
      ],
      "name": "uri",
      "outputs": [
        {
          "internalType": "string",
          "name": "",
          "type": "string"
        }
      ],
      "stateMutability": "view",
      "type": "function"
    }
  ],
  "bytecode": "0x60806040523480156200001157600080fd5b50604051620043a6380380620043a683398181016040528101906200003791906200037b565b6040518060200160405280600081525062000058816200010560201b60201c565b506000600360006101000a81548160ff02191690831515021790555062000094620000886200011a60201b60201c565b6200012260201b60201c565b8060069081620000a5919062000617565b506001600760003373ffffffffffffffffffffffffffffffffffffffff1673ffffffffffffffffffffffffffffffffffffffff16815260200190815260200160002060006101000a81548160ff02191690831515021790555050620006fe565b806002908162000116919062000617565b5050565b600033905090565b6000600360019054906101000a900473ffffffffffffffffffffffffffffffffffffffff16905081600360016101000a81548173ffffffffffffffffffffffffffffffffffffffff021916908373ffffffffffffffffffffffffffffffffffffffff1602179055508173ffffffffffffffffffffffffffffffffffffffff168173ffffffffffffffffffffffffffffffffffffffff167f8be0079c531659141344cd1fd0a4f28419497f9722a3daafe3b4186f6b6457e060405160405180910390a35050565b6000604051905090565b600080fd5b600080fd5b600080fd5b600080fd5b6000601f19601f8301169050919050565b7f4e487b7100000000000000000000000000000000000000000000000000000000600052604160045260246000fd5b620002518262000206565b810181811067ffffffffffffffff8211171562000273576200027262000217565b5b80604052505050565b600062000288620001e8565b905062000296828262000246565b919050565b600067ffffffffffffffff821115620002b957620002b862000217565b5b620002c48262000206565b9050602081019050919050565b60005b83811015620002f1578082015181840152602081019050620002d4565b60008484015250505050565b6000620003146200030e846200029b565b6200027c565b90508281526020810184848401111562000333576200033262000201565b5b62000340848285620002d1565b509392505050565b600082601f83011262000360576200035f620001fc565b5b815162000372848260208601620002fd565b91505092915050565b600060208284031215620003945762000393620001f2565b5b600082015167ffffffffffffffff811115620003b557620003b4620001f7565b5b620003c38482850162000348565b91505092915050565b600081519050919050565b7f4e487b7100000000000000000000000000000000000000000000000000000000600052602260045260246000fd5b600060028204905060018216806200041f57607f821691505b602082108103620004355762000434620003d7565b5b50919050565b60008190508160005260206000209050919050565b60006020601f8301049050919050565b600082821b905092915050565b6000600883026200049f7fffffffffffffffffffffffffffffffffffffffffffffffffffffffffffffffff8262000460565b620004ab868362000460565b95508019841693508086168417925050509392505050565b6000819050919050565b6000819050919050565b6000620004f8620004f2620004ec84620004c3565b620004cd565b620004c3565b9050919050565b6000819050919050565b6200051483620004d7565b6200052c6200052382620004ff565b8484546200046d565b825550505050565b600090565b6200054362000534565b6200055081848462000509565b505050565b5b8181101562000578576200056c60008262000539565b60018101905062000556565b5050565b601f821115620005c75762000591816200043b565b6200059c8462000450565b81016020851015620005ac578190505b620005c4620005bb8562000450565b83018262000555565b50505b505050565b600082821c905092915050565b6000620005ec60001984600802620005cc565b1980831691505092915050565b6000620006078383620005d9565b9150826002028217905092915050565b6200062282620003cc565b67ffffffffffffffff8111156200063e576200063d62000217565b5b6200064a825462000406565b620006578282856200057c565b600060209050601f8311600181146200068f57600084156200067a578287015190505b620006868582620005f9565b865550620006f6565b601f1984166200069f866200043b565b60005b82811015620006c957848901518255600182019150602085019450602081019050620006a2565b86831015620006e95784890151620006e5601f891682620005d9565b8355505b6001600288020188555050505b505050505050565b613c98806200070e6000396000f3fe608060405234801561001057600080fd5b50600436106101365760003560e01c806370480275116100b8578063bb7fde711161007c578063bb7fde7114610311578063bd85b0391461032d578063e6c3b1f61461035d578063e985e9c51461038d578063f242432a146103bd578063f2fde38b146103d957610136565b806370480275146102a7578063715018a6146102c35780638456cb59146102cd5780638da5cb5b146102d7578063a22cb465146102f557610136565b80632eb2c2d6116100ff5780632eb2c2d6146102175780633f4ba83a146102335780634e1273f41461023d57806355f804b31461026d5780635c975abb1461028957610136565b8062fdd58e1461013b57806301ffc9a71461016b5780630e89341c1461019b5780631785f53c146101cb57806324d7806c146101e7575b600080fd5b6101556004803603810190610150919061215c565b6103f5565b60405161016291906121ab565b60405180910390f35b6101856004803603810190610180919061221e565b6104bd565b6040516101929190612266565b60405180910390f35b6101b560048036038101906101b09190612281565b61059f565b6040516101c2919061233e565b60405180910390f35b6101e560048036038101906101e09190612360565b6105ff565b005b61020160048036038101906101fc9190612360565b6106d0565b60405161020e9190612266565b60405180910390f35b610231600480360381019061022c919061258a565b610726565b005b61023b6107c7565b005b6102576004803603810190610252919061271c565b6107d9565b6040516102649190612852565b60405180910390f35b61028760048036038101906102829190612915565b6108f2565b005b61029161090d565b60405161029e9190612266565b60405180910390f35b6102c160048036038101906102bc9190612360565b610924565b005b6102cb610987565b005b6102d561099b565b005b6102df6109ad565b6040516102ec919061296d565b60405180910390f35b61030f600480360381019061030a91906129b4565b6109d7565b005b61032b600480360381019061032691906129f4565b6109ed565b005b61034760048036038101906103429190612281565b610b79565b60405161035491906121ab565b60405180910390f35b61037760048036038101906103729190612281565b610b96565b604051610384919061233e565b60405180910390f35b6103a760048036038101906103a29190612a77565b610c3b565b6040516103b49190612266565b60405180910390f35b6103d760048036038101906103d29190612ab7565b610ccf565b005b6103f360048036038101906103ee9190612360565b610d70565b005b60008073ffffffffffffffffffffffffffffffffffffffff168373ffffffffffffffffffffffffffffffffffffffff1603610465576040517f08c379a000000000000000000000000000000000000000000000000000000000815260040161045c90612bc0565b60405180910390fd5b60008083815260200190815260200160002060008473ffffffffffffffffffffffffffffffffffffffff1673ffffffffffffffffffffffffffffffffffffffff16815260200190815260200160002054905092915050565b60007fd9b67a26000000000000000000000000000000000000000000000000000000007bffffffffffffffffffffffffffffffffffffffffffffffffffffffff1916827bffffffffffffffffffffffffffffffffffffffffffffffffffffffff1916148061058857507f0e89341c000000000000000000000000000000000000000000000000000000007bffffffffffffffffffffffffffffffffffffffffffffffffffffffff1916827bffffffffffffffffffffffffffffffffffffffffffffffffffffffff1916145b80610598575061059782610df3565b5b9050919050565b60606000600680546105b090612c0f565b9050116105cc57604051806020016040528060008152506105f8565b60066105d783610e5d565b6040516020016105e8929190612d14565b6040516020818303038152906040525b9050919050565b610607610f2b565b3373ffffffffffffffffffffffffffffffffffffffff168173ffffffffffffffffffffffffffffffffffffffff1603610675576040517f08c379a000000000000000000000000000000000000000000000000000000000815260040161066c90612daa565b60405180910390fd5b6000600760008373ffffffffffffffffffffffffffffffffffffffff1673ffffffffffffffffffffffffffffffffffffffff16815260200190815260200160002060006101000a81548160ff02191690831515021790555050565b6000600760008373ffffffffffffffffffffffffffffffffffffffff1673ffffffffffffffffffffffffffffffffffffffff16815260200190815260200160002060009054906101000a900460ff169050919050565b61072e610fa9565b73ffffffffffffffffffffffffffffffffffffffff168573ffffffffffffffffffffffffffffffffffffffff16148061077457506107738561076e610fa9565b610c3b565b5b6107b3576040517f08c379a00000000000000000000000000000000000000000000000000000000081526004016107aa90612e3c565b60405180910390fd5b6107c08585858585610fb1565b5050505050565b6107cf610f2b565b6107d76112d2565b565b6060815183511461081f576040517f08c379a000000000000000000000000000000000000000000000000000000000815260040161081690612ece565b60405180910390fd5b6000835167ffffffffffffffff81111561083c5761083b612392565b5b60405190808252806020026020018201604052801561086a5781602001602082028036833780820191505090505b50905060005b84518110156108e7576108b785828151811061088f5761088e612eee565b5b60200260200101518583815181106108aa576108a9612eee565b5b60200260200101516103f5565b8282815181106108ca576108c9612eee565b5b602002602001018181525050806108e090612f4c565b9050610870565b508091505092915050565b6108fa610f2b565b8060069081610909919061312b565b5050565b6000600360009054906101000a900460ff16905090565b61092c610f2b565b6001600760008373ffffffffffffffffffffffffffffffffffffffff1673ffffffffffffffffffffffffffffffffffffffff16815260200190815260200160002060006101000a81548160ff02191690831515021790555050565b61098f610f2b565b6109996000611335565b565b6109a3610f2b565b6109ab6113fb565b565b6000600360019054906101000a900473ffffffffffffffffffffffffffffffffffffffff16905090565b6109e96109e2610fa9565b838361145e565b5050565b600760003373ffffffffffffffffffffffffffffffffffffffff1673ffffffffffffffffffffffffffffffffffffffff16815260200190815260200160002060009054906101000a900460ff16610a79576040517f08c379a0000000000000000000000000000000000000000000000000000000008152600401610a709061326f565b60405180910390fd5b6000815111610abd576040517f08c379a0000000000000000000000000000000000000000000000000000000008152600401610ab490613301565b60405180910390fd5b610ad8848484604051806020016040528060008152506115ca565b81600460008581526020019081526020016000206000828254610afb9190613321565b9250508190555080600560008581526020019081526020016000209081610b22919061312b565b508373ffffffffffffffffffffffffffffffffffffffff167f25b428dfde728ccfaddad7e29e4ac23c24ed7fd1a6e3e3f91894a9a073f5dfff8484604051610b6b929190613355565b60405180910390a250505050565b600060046000838152602001908152602001600020549050919050565b6060600560008381526020019081526020016000208054610bb690612c0f565b80601f0160208091040260200160405190810160405280929190818152602001828054610be290612c0f565b8015610c2f5780601f10610c0457610100808354040283529160200191610c2f565b820191906000526020600020905b815481529060010190602001808311610c1257829003601f168201915b50505050509050919050565b6000600160008473ffffffffffffffffffffffffffffffffffffffff1673ffffffffffffffffffffffffffffffffffffffff16815260200190815260200160002060008373ffffffffffffffffffffffffffffffffffffffff1673ffffffffffffffffffffffffffffffffffffffff16815260200190815260200160002060009054906101000a900460ff16905092915050565b610cd7610fa9565b73ffffffffffffffffffffffffffffffffffffffff168573ffffffffffffffffffffffffffffffffffffffff161480610d1d5750610d1c85610d17610fa9565b610c3b565b5b610d5c576040517f08c379a0000000000000000000000000000000000000000000000000000000008152600401610d5390612e3c565b60405180910390fd5b610d69858585858561177a565b5050505050565b610d78610f2b565b600073ffffffffffffffffffffffffffffffffffffffff168173ffffffffffffffffffffffffffffffffffffffff1603610de7576040517f08c379a0000000000000000000000000000000000000000000000000000000008152600401610dde906133f0565b60405180910390fd5b610df081611335565b50565b60007f01ffc9a7000000000000000000000000000000000000000000000000000000007bffffffffffffffffffffffffffffffffffffffffffffffffffffffff1916827bffffffffffffffffffffffffffffffffffffffffffffffffffffffff1916149050919050565b606060006001610e6c84611a15565b01905060008167ffffffffffffffff811115610e8b57610e8a612392565b5b6040519080825280601f01601f191660200182016040528015610ebd5781602001600182028036833780820191505090505b509050600082602001820190505b600115610f20578080600190039150507f3031323334353637383961626364656600000000000000000000000000000000600a86061a8153600a8581610f1457610f13613410565b5b04945060008503610ecb575b819350505050919050565b610f33610fa9565b73ffffffffffffffffffffffffffffffffffffffff16610f516109ad565b73ffffffffffffffffffffffffffffffffffffffff1614610fa7576040517f08c379a0000000000000000000000000000000000000000000000000000000008152600401610f9e9061348b565b60405180910390fd5b565b600033905090565b8151835114610ff5576040517f08c379a0000000000000000000000000000000000000000000000000000000008152600401610fec9061351d565b60405180910390fd5b600073ffffffffffffffffffffffffffffffffffffffff168473ffffffffffffffffffffffffffffffffffffffff1603611064576040517f08c379a000000000000000000000000000000000000000000000000000000000815260040161105b906135af565b60405180910390fd5b600061106e610fa9565b905061107e818787878787611b68565b60005b845181101561122f57600085828151811061109f5761109e612eee565b5b6020026020010151905060008583815181106110be576110bd612eee565b5b60200260200101519050600080600084815260200190815260200160002060008b73ffffffffffffffffffffffffffffffffffffffff1673ffffffffffffffffffffffffffffffffffffffff1681526020019081526020016000205490508181101561115f576040517f08c379a000000000000000000000000000000000000000000000000000000000815260040161115690613641565b60405180910390fd5b81810360008085815260200190815260200160002060008c73ffffffffffffffffffffffffffffffffffffffff1673ffffffffffffffffffffffffffffffffffffffff168152602001908152602001600020819055508160008085815260200190815260200160002060008b73ffffffffffffffffffffffffffffffffffffffff1673ffffffffffffffffffffffffffffffffffffffff16815260200190815260200160002060008282546112149190613321565b925050819055505050508061122890612f4c565b9050611081565b508473ffffffffffffffffffffffffffffffffffffffff168673ffffffffffffffffffffffffffffffffffffffff168273ffffffffffffffffffffffffffffffffffffffff167f4a39dc06d4c0dbc64b70af90fd698a233a518aa5d07e595d983b8c0526c8f7fb87876040516112a6929190613661565b60405180910390a46112bc818787878787611bc6565b6112ca818787878787611bce565b505050505050565b6112da611da5565b6000600360006101000a81548160ff0219169083151502179055507f5db9ee0a495bf2e6ff9c91a7834c1ba4fdd244a5e8aa4e537bd38aeae4b073aa61131e610fa9565b60405161132b919061296d565b60405180910390a1565b6000600360019054906101000a900473ffffffffffffffffffffffffffffffffffffffff16905081600360016101000a81548173ffffffffffffffffffffffffffffffffffffffff021916908373ffffffffffffffffffffffffffffffffffffffff1602179055508173ffffffffffffffffffffffffffffffffffffffff168173ffffffffffffffffffffffffffffffffffffffff167f8be0079c531659141344cd1fd0a4f28419497f9722a3daafe3b4186f6b6457e060405160405180910390a35050565b611403611dee565b6001600360006101000a81548160ff0219169083151502179055507f62e78cea01bee320cd4e420270b5ea74000d11b0c9f74754ebdbfc544b05a258611447610fa9565b604051611454919061296d565b60405180910390a1565b8173ffffffffffffffffffffffffffffffffffffffff168373ffffffffffffffffffffffffffffffffffffffff16036114cc576040517f08c379a00000000000000000000000000000000000000000000000000000000081526004016114c39061370a565b60405180910390fd5b80600160008573ffffffffffffffffffffffffffffffffffffffff1673ffffffffffffffffffffffffffffffffffffffff16815260200190815260200160002060008473ffffffffffffffffffffffffffffffffffffffff1673ffffffffffffffffffffffffffffffffffffffff16815260200190815260200160002060006101000a81548160ff0219169083151502179055508173ffffffffffffffffffffffffffffffffffffffff168373ffffffffffffffffffffffffffffffffffffffff167f17307eab39ab6107e8899845ad3d59bd9653f200f220920489ca2b5937696c31836040516115bd9190612266565b60405180910390a3505050565b600073ffffffffffffffffffffffffffffffffffffffff168473ffffffffffffffffffffffffffffffffffffffff1603611639576040517f08c379a00000000000000000000000000000000000000000000000000000000081526004016116309061379c565b60405180910390fd5b6000611643610fa9565b9050600061165085611e38565b9050600061165d85611e38565b905061166e83600089858589611b68565b8460008088815260200190815260200160002060008973ffffffffffffffffffffffffffffffffffffffff1673ffffffffffffffffffffffffffffffffffffffff16815260200190815260200160002060008282546116cd9190613321565b925050819055508673ffffffffffffffffffffffffffffffffffffffff16600073ffffffffffffffffffffffffffffffffffffffff168473ffffffffffffffffffffffffffffffffffffffff167fc3d58168c5ae7397731d063d5bbf3d657854427343f4c083240f7aacaa2d0f62898960405161174b929190613355565b60405180910390a461176283600089858589611bc6565b61177183600089898989611eb2565b50505050505050565b600073ffffffffffffffffffffffffffffffffffffffff168473ffffffffffffffffffffffffffffffffffffffff16036117e9576040517f08c379a00000000000000000000000000000000000000000000000000000000081526004016117e0906135af565b60405180910390fd5b60006117f3610fa9565b9050600061180085611e38565b9050600061180d85611e38565b905061181d838989858589611b68565b600080600088815260200190815260200160002060008a73ffffffffffffffffffffffffffffffffffffffff1673ffffffffffffffffffffffffffffffffffffffff168152602001908152602001600020549050858110156118b4576040517f08c379a00000000000000000000000000000000000000000000000000000000081526004016118ab90613641565b60405180910390fd5b85810360008089815260200190815260200160002060008b73ffffffffffffffffffffffffffffffffffffffff1673ffffffffffffffffffffffffffffffffffffffff168152602001908152602001600020819055508560008089815260200190815260200160002060008a73ffffffffffffffffffffffffffffffffffffffff1673ffffffffffffffffffffffffffffffffffffffff16815260200190815260200160002060008282546119699190613321565b925050819055508773ffffffffffffffffffffffffffffffffffffffff168973ffffffffffffffffffffffffffffffffffffffff168573ffffffffffffffffffffffffffffffffffffffff167fc3d58168c5ae7397731d063d5bbf3d657854427343f4c083240f7aacaa2d0f628a8a6040516119e6929190613355565b60405180910390a46119fc848a8a86868a611bc6565b611a0a848a8a8a8a8a611eb2565b505050505050505050565b600080600090507a184f03e93ff9f4daa797ed6e38ed64bf6a1f0100000000000000008310611a73577a184f03e93ff9f4daa797ed6e38ed64bf6a1f0100000000000000008381611a6957611a68613410565b5b0492506040810190505b6d04ee2d6d415b85acef81000000008310611ab0576d04ee2d6d415b85acef81000000008381611aa657611aa5613410565b5b0492506020810190505b662386f26fc100008310611adf57662386f26fc100008381611ad557611ad4613410565b5b0492506010810190505b6305f5e1008310611b08576305f5e1008381611afe57611afd613410565b5b0492506008810190505b6127108310611b2d576127108381611b2357611b22613410565b5b0492506004810190505b60648310611b505760648381611b4657611b45613410565b5b0492506002810190505b600a8310611b5f576001810190505b80915050919050565b611b76868686868686612089565b611b7e61090d565b15611bbe576040517f08c379a0000000000000000000000000000000000000000000000000000000008152600401611bb59061382e565b60405180910390fd5b505050505050565b505050505050565b611bed8473ffffffffffffffffffffffffffffffffffffffff16612091565b15611d9d578373ffffffffffffffffffffffffffffffffffffffff1663bc197c8187878686866040518663ffffffff1660e01b8152600401611c339594939291906138a3565b6020604051808303816000875af1925050508015611c6f57506040513d601f19601f82011682018060405250810190611c6c9190613920565b60015b611d1457611c7b61395a565b806308c379a003611cd75750611c8f61397c565b80611c9a5750611cd9565b806040517f08c379a0000000000000000000000000000000000000000000000000000000008152600401611cce919061233e565b60405180910390fd5b505b6040517f08c379a0000000000000000000000000000000000000000000000000000000008152600401611d0b90613a7e565b60405180910390fd5b63bc197c8160e01b7bffffffffffffffffffffffffffffffffffffffffffffffffffffffff1916817bffffffffffffffffffffffffffffffffffffffffffffffffffffffff191614611d9b576040517f08c379a0000000000000000000000000000000000000000000000000000000008152600401611d9290613b10565b60405180910390fd5b505b505050505050565b611dad61090d565b611dec576040517f08c379a0000000000000000000000000000000000000000000000000000000008152600401611de390613b7c565b60405180910390fd5b565b611df661090d565b15611e36576040517f08c379a0000000000000000000000000000000000000000000000000000000008152600401611e2d90613be8565b60405180910390fd5b565b60606000600167ffffffffffffffff811115611e5757611e56612392565b5b604051908082528060200260200182016040528015611e855781602001602082028036833780820191505090505b5090508281600081518110611e9d57611e9c612eee565b5b60200260200101818152505080915050919050565b611ed18473ffffffffffffffffffffffffffffffffffffffff16612091565b15612081578373ffffffffffffffffffffffffffffffffffffffff1663f23a6e6187878686866040518663ffffffff1660e01b8152600401611f17959493929190613c08565b6020604051808303816000875af1925050508015611f5357506040513d601f19601f82011682018060405250810190611f509190613920565b60015b611ff857611f5f61395a565b806308c379a003611fbb5750611f7361397c565b80611f7e5750611fbd565b806040517f08c379a0000000000000000000000000000000000000000000000000000000008152600401611fb2919061233e565b60405180910390fd5b505b6040517f08c379a0000000000000000000000000000000000000000000000000000000008152600401611fef90613a7e565b60405180910390fd5b63f23a6e6160e01b7bffffffffffffffffffffffffffffffffffffffffffffffffffffffff1916817bffffffffffffffffffffffffffffffffffffffffffffffffffffffff19161461207f576040517f08c379a000000000000000000000000000000000000000000000000000000000815260040161207690613b10565b60405180910390fd5b505b505050505050565b505050505050565b6000808273ffffffffffffffffffffffffffffffffffffffff163b119050919050565b6000604051905090565b600080fd5b600080fd5b600073ffffffffffffffffffffffffffffffffffffffff82169050919050565b60006120f3826120c8565b9050919050565b612103816120e8565b811461210e57600080fd5b50565b600081359050612120816120fa565b92915050565b6000819050919050565b61213981612126565b811461214457600080fd5b50565b60008135905061215681612130565b92915050565b60008060408385031215612173576121726120be565b5b600061218185828601612111565b925050602061219285828601612147565b9150509250929050565b6121a581612126565b82525050565b60006020820190506121c0600083018461219c565b92915050565b60007fffffffff0000000000000000000000000000000000000000000000000000000082169050919050565b6121fb816121c6565b811461220657600080fd5b50565b600081359050612218816121f2565b92915050565b600060208284031215612234576122336120be565b5b600061224284828501612209565b91505092915050565b60008115159050919050565b6122608161224b565b82525050565b600060208201905061227b6000830184612257565b92915050565b600060208284031215612297576122966120be565b5b60006122a584828501612147565b91505092915050565b600081519050919050565b600082825260208201905092915050565b60005b838110156122e85780820151818401526020810190506122cd565b60008484015250505050565b6000601f19601f8301169050919050565b6000612310826122ae565b61231a81856122b9565b935061232a8185602086016122ca565b612333816122f4565b840191505092915050565b600060208201905081810360008301526123588184612305565b905092915050565b600060208284031215612376576123756120be565b5b600061238484828501612111565b91505092915050565b600080fd5b7f4e487b7100000000000000000000000000000000000000000000000000000000600052604160045260246000fd5b6123ca826122f4565b810181811067ffffffffffffffff821117156123e9576123e8612392565b5b80604052505050565b60006123fc6120b4565b905061240882826123c1565b919050565b600067ffffffffffffffff82111561242857612427612392565b5b602082029050602081019050919050565b600080fd5b600061245161244c8461240d565b6123f2565b9050808382526020820190506020840283018581111561247457612473612439565b5b835b8181101561249d57806124898882612147565b845260208401935050602081019050612476565b5050509392505050565b600082601f8301126124bc576124bb61238d565b5b81356124cc84826020860161243e565b91505092915050565b600080fd5b600067ffffffffffffffff8211156124f5576124f4612392565b5b6124fe826122f4565b9050602081019050919050565b82818337600083830152505050565b600061252d612528846124da565b6123f2565b905082815260208101848484011115612549576125486124d5565b5b61255484828561250b565b509392505050565b600082601f8301126125715761257061238d565b5b813561258184826020860161251a565b91505092915050565b600080600080600060a086880312156125a6576125a56120be565b5b60006125b488828901612111565b95505060206125c588828901612111565b945050604086013567ffffffffffffffff8111156125e6576125e56120c3565b5b6125f2888289016124a7565b935050606086013567ffffffffffffffff811115612613576126126120c3565b5b61261f888289016124a7565b925050608086013567ffffffffffffffff8111156126405761263f6120c3565b5b61264c8882890161255c565b9150509295509295909350565b600067ffffffffffffffff82111561267457612673612392565b5b602082029050602081019050919050565b600061269861269384612659565b6123f2565b905080838252602082019050602084028301858111156126bb576126ba612439565b5b835b818110156126e457806126d08882612111565b8452602084019350506020810190506126bd565b5050509392505050565b600082601f8301126127035761270261238d565b5b8135612713848260208601612685565b91505092915050565b60008060408385031215612733576127326120be565b5b600083013567ffffffffffffffff811115612751576127506120c3565b5b61275d858286016126ee565b925050602083013567ffffffffffffffff81111561277e5761277d6120c3565b5b61278a858286016124a7565b9150509250929050565b600081519050919050565b600082825260208201905092915050565b6000819050602082019050919050565b6127c981612126565b82525050565b60006127db83836127c0565b60208301905092915050565b6000602082019050919050565b60006127ff82612794565b612809818561279f565b9350612814836127b0565b8060005b8381101561284557815161282c88826127cf565b9750612837836127e7565b925050600181019050612818565b5085935050505092915050565b6000602082019050818103600083015261286c81846127f4565b905092915050565b600067ffffffffffffffff82111561288f5761288e612392565b5b612898826122f4565b9050602081019050919050565b60006128b86128b384612874565b6123f2565b9050828152602081018484840111156128d4576128d36124d5565b5b6128df84828561250b565b509392505050565b600082601f8301126128fc576128fb61238d565b5b813561290c8482602086016128a5565b91505092915050565b60006020828403121561292b5761292a6120be565b5b600082013567ffffffffffffffff811115612949576129486120c3565b5b612955848285016128e7565b91505092915050565b612967816120e8565b82525050565b6000602082019050612982600083018461295e565b92915050565b6129918161224b565b811461299c57600080fd5b50565b6000813590506129ae81612988565b92915050565b600080604083850312156129cb576129ca6120be565b5b60006129d985828601612111565b92505060206129ea8582860161299f565b9150509250929050565b60008060008060808587031215612a0e57612a0d6120be565b5b6000612a1c87828801612111565b9450506020612a2d87828801612147565b9350506040612a3e87828801612147565b925050606085013567ffffffffffffffff811115612a5f57612a5e6120c3565b5b612a6b878288016128e7565b91505092959194509250565b60008060408385031215612a8e57612a8d6120be565b5b6000612a9c85828601612111565b9250506020612aad85828601612111565b9150509250929050565b600080600080600060a08688031215612ad357612ad26120be565b5b6000612ae188828901612111565b9550506020612af288828901612111565b9450506040612b0388828901612147565b9350506060612b1488828901612147565b925050608086013567ffffffffffffffff811115612b3557612b346120c3565b5b612b418882890161255c565b9150509295509295909350565b7f455243313135353a2061646472657373207a65726f206973206e6f742061207660008201527f616c6964206f776e657200000000000000000000000000000000000000000000602082015250565b6000612baa602a836122b9565b9150612bb582612b4e565b604082019050919050565b60006020820190508181036000830152612bd981612b9d565b9050919050565b7f4e487b7100000000000000000000000000000000000000000000000000000000600052602260045260246000fd5b60006002820490506001821680612c2757607f821691505b602082108103612c3a57612c39612be0565b5b50919050565b600081905092915050565b60008190508160005260206000209050919050565b60008154612c6d81612c0f565b612c778186612c40565b94506001821660008114612c925760018114612ca757612cda565b60ff1983168652811515820286019350612cda565b612cb085612c4b565b60005b83811015612cd257815481890152600182019150602081019050612cb3565b838801955050505b50505092915050565b6000612cee826122ae565b612cf88185612c40565b9350612d088185602086016122ca565b80840191505092915050565b6000612d208285612c60565b9150612d2c8284612ce3565b91508190509392505050565b7f4e6674436f6e74726163743a206f776e65722063616e6e6f742072656d6f766560008201527f207468656d73656c7665732061732061646d696e000000000000000000000000602082015250565b6000612d946034836122b9565b9150612d9f82612d38565b604082019050919050565b60006020820190508181036000830152612dc381612d87565b9050919050565b7f455243313135353a2063616c6c6572206973206e6f7420746f6b656e206f776e60008201527f6572206f7220617070726f766564000000000000000000000000000000000000602082015250565b6000612e26602e836122b9565b9150612e3182612dca565b604082019050919050565b60006020820190508181036000830152612e5581612e19565b9050919050565b7f455243313135353a206163636f756e747320616e6420696473206c656e67746860008201527f206d69736d617463680000000000000000000000000000000000000000000000602082015250565b6000612eb86029836122b9565b9150612ec382612e5c565b604082019050919050565b60006020820190508181036000830152612ee781612eab565b9050919050565b7f4e487b7100000000000000000000000000000000000000000000000000000000600052603260045260246000fd5b7f4e487b7100000000000000000000000000000000000000000000000000000000600052601160045260246000fd5b6000612f5782612126565b91507fffffffffffffffffffffffffffffffffffffffffffffffffffffffffffffffff8203612f8957612f88612f1d565b5b600182019050919050565b60006020601f8301049050919050565b600082821b905092915050565b600060088302612fe17fffffffffffffffffffffffffffffffffffffffffffffffffffffffffffffffff82612fa4565b612feb8683612fa4565b95508019841693508086168417925050509392505050565b6000819050919050565b600061302861302361301e84612126565b613003565b612126565b9050919050565b6000819050919050565b6130428361300d565b61305661304e8261302f565b848454612fb1565b825550505050565b600090565b61306b61305e565b613076818484613039565b505050565b5b8181101561309a5761308f600082613063565b60018101905061307c565b5050565b601f8211156130df576130b081612c4b565b6130b984612f94565b810160208510156130c8578190505b6130dc6130d485612f94565b83018261307b565b50505b505050565b600082821c905092915050565b6000613102600019846008026130e4565b1980831691505092915050565b600061311b83836130f1565b9150826002028217905092915050565b613134826122ae565b67ffffffffffffffff81111561314d5761314c612392565b5b6131578254612c0f565b61316282828561309e565b600060209050601f8311600181146131955760008415613183578287015190505b61318d858261310f565b8655506131f5565b601f1984166131a386612c4b565b60005b828110156131cb578489015182556001820191506020850194506020810190506131a6565b868310156131e857848901516131e4601f8916826130f1565b8355505b6001600288020188555050505b505050505050565b7f4e6674436f6e74726163743a2063616c6c6572206973206e6f7420616e20616460008201527f6d696e0000000000000000000000000000000000000000000000000000000000602082015250565b60006132596023836122b9565b9150613264826131fd565b604082019050919050565b600060208201905081810360008301526132888161324c565b9050919050565b7f4e6674436f6e74726163743a20746f6b656e547970652063616e6e6f7420626560008201527f20656d7074790000000000000000000000000000000000000000000000000000602082015250565b60006132eb6026836122b9565b91506132f68261328f565b604082019050919050565b6000602082019050818103600083015261331a816132de565b9050919050565b600061332c82612126565b915061333783612126565b925082820190508082111561334f5761334e612f1d565b5b92915050565b600060408201905061336a600083018561219c565b613377602083018461219c565b9392505050565b7f4f776e61626c653a206e6577206f776e657220697320746865207a65726f206160008201527f6464726573730000000000000000000000000000000000000000000000000000602082015250565b60006133da6026836122b9565b91506133e58261337e565b604082019050919050565b60006020820190508181036000830152613409816133cd565b9050919050565b7f4e487b7100000000000000000000000000000000000000000000000000000000600052601260045260246000fd5b7f4f776e61626c653a2063616c6c6572206973206e6f7420746865206f776e6572600082015250565b60006134756020836122b9565b91506134808261343f565b602082019050919050565b600060208201905081810360008301526134a481613468565b9050919050565b7f455243313135353a2069647320616e6420616d6f756e7473206c656e6774682060008201527f6d69736d61746368000000000000000000000000000000000000000000000000602082015250565b60006135076028836122b9565b9150613512826134ab565b604082019050919050565b60006020820190508181036000830152613536816134fa565b9050919050565b7f455243313135353a207472616e7366657220746f20746865207a65726f20616460008201527f6472657373000000000000000000000000000000000000000000000000000000602082015250565b60006135996025836122b9565b91506135a48261353d565b604082019050919050565b600060208201905081810360008301526135c88161358c565b9050919050565b7f455243313135353a20696e73756666696369656e742062616c616e636520666f60008201527f72207472616e7366657200000000000000000000000000000000000000000000602082015250565b600061362b602a836122b9565b9150613636826135cf565b604082019050919050565b6000602082019050818103600083015261365a8161361e565b9050919050565b6000604082019050818103600083015261367b81856127f4565b9050818103602083015261368f81846127f4565b90509392505050565b7f455243313135353a2073657474696e6720617070726f76616c2073746174757360008201527f20666f722073656c660000000000000000000000000000000000000000000000602082015250565b60006136f46029836122b9565b91506136ff82613698565b604082019050919050565b60006020820190508181036000830152613723816136e7565b9050919050565b7f455243313135353a206d696e7420746f20746865207a65726f2061646472657360008201527f7300000000000000000000000000000000000000000000000000000000000000602082015250565b60006137866021836122b9565b91506137918261372a565b604082019050919050565b600060208201905081810360008301526137b581613779565b9050919050565b7f455243313135355061757361626c653a20746f6b656e207472616e736665722060008201527f7768696c65207061757365640000000000000000000000000000000000000000602082015250565b6000613818602c836122b9565b9150613823826137bc565b604082019050919050565b600060208201905081810360008301526138478161380b565b9050919050565b600081519050919050565b600082825260208201905092915050565b60006138758261384e565b61387f8185613859565b935061388f8185602086016122ca565b613898816122f4565b840191505092915050565b600060a0820190506138b8600083018861295e565b6138c5602083018761295e565b81810360408301526138d781866127f4565b905081810360608301526138eb81856127f4565b905081810360808301526138ff818461386a565b90509695505050505050565b60008151905061391a816121f2565b92915050565b600060208284031215613936576139356120be565b5b60006139448482850161390b565b91505092915050565b60008160e01c9050919050565b600060033d11156139795760046000803e61397660005161394d565b90505b90565b600060443d10613a095761398e6120b4565b60043d036004823e80513d602482011167ffffffffffffffff821117156139b6575050613a09565b808201805167ffffffffffffffff8111156139d45750505050613a09565b80602083010160043d0385018111156139f1575050505050613a09565b613a00826020018501866123c1565b82955050505050505b90565b7f455243313135353a207472616e7366657220746f206e6f6e2d4552433131353560008201527f526563656976657220696d706c656d656e746572000000000000000000000000602082015250565b6000613a686034836122b9565b9150613a7382613a0c565b604082019050919050565b60006020820190508181036000830152613a9781613a5b565b9050919050565b7f455243313135353a204552433131353552656365697665722072656a6563746560008201527f6420746f6b656e73000000000000000000000000000000000000000000000000602082015250565b6000613afa6028836122b9565b9150613b0582613a9e565b604082019050919050565b60006020820190508181036000830152613b2981613aed565b9050919050565b7f5061757361626c653a206e6f7420706175736564000000000000000000000000600082015250565b6000613b666014836122b9565b9150613b7182613b30565b602082019050919050565b60006020820190508181036000830152613b9581613b59565b9050919050565b7f5061757361626c653a2070617573656400000000000000000000000000000000600082015250565b6000613bd26010836122b9565b9150613bdd82613b9c565b602082019050919050565b60006020820190508181036000830152613c0181613bc5565b9050919050565b600060a082019050613c1d600083018861295e565b613c2a602083018761295e565b613c37604083018661219c565b613c44606083018561219c565b8181036080830152613c56818461386a565b9050969550505050505056fea2646970667358221220f67437043612e612326caa348b81deba430f9bd609f660e83b99a7dd63d9e3f064736f6c63430008130033",
  "linkReferences": {},
  "deployedLinkReferences": {}
}